{
  "_format": "hh3-artifact-1",
  "contractName": "MockIDRX",
  "sourceName": "contracts/MockIDRX.sol",
  "abi": [
    {
      "inputs": [
        {
          "internalType": "address",
          "name": "initialOwner",
          "type": "address"
        }
      ],
      "stateMutability": "nonpayable",
      "type": "constructor"
    },
    {
      "inputs": [],
      "name": "ECDSAInvalidSignature",
      "type": "error"
    },
    {
      "inputs": [
        {
          "internalType": "uint256",
          "name": "length",
          "type": "uint256"
        }
      ],
      "name": "ECDSAInvalidSignatureLength",
      "type": "error"
    },
    {
      "inputs": [
        {
          "internalType": "bytes32",
          "name": "s",
          "type": "bytes32"
        }
      ],
      "name": "ECDSAInvalidSignatureS",
      "type": "error"
    },
    {
      "inputs": [
        {
          "internalType": "address",
          "name": "spender",
          "type": "address"
        },
        {
          "internalType": "uint256",
          "name": "allowance",
          "type": "uint256"
        },
        {
          "internalType": "uint256",
          "name": "needed",
          "type": "uint256"
        }
      ],
      "name": "ERC20InsufficientAllowance",
      "type": "error"
    },
    {
      "inputs": [
        {
          "internalType": "address",
          "name": "sender",
          "type": "address"
        },
        {
          "internalType": "uint256",
          "name": "balance",
          "type": "uint256"
        },
        {
          "internalType": "uint256",
          "name": "needed",
          "type": "uint256"
        }
      ],
      "name": "ERC20InsufficientBalance",
      "type": "error"
    },
    {
      "inputs": [
        {
          "internalType": "address",
          "name": "approver",
          "type": "address"
        }
      ],
      "name": "ERC20InvalidApprover",
      "type": "error"
    },
    {
      "inputs": [
        {
          "internalType": "address",
          "name": "receiver",
          "type": "address"
        }
      ],
      "name": "ERC20InvalidReceiver",
      "type": "error"
    },
    {
      "inputs": [
        {
          "internalType": "address",
          "name": "sender",
          "type": "address"
        }
      ],
      "name": "ERC20InvalidSender",
      "type": "error"
    },
    {
      "inputs": [
        {
          "internalType": "address",
          "name": "spender",
          "type": "address"
        }
      ],
      "name": "ERC20InvalidSpender",
      "type": "error"
    },
    {
      "inputs": [
        {
          "internalType": "uint256",
          "name": "deadline",
          "type": "uint256"
        }
      ],
      "name": "ERC2612ExpiredSignature",
      "type": "error"
    },
    {
      "inputs": [
        {
          "internalType": "address",
          "name": "signer",
          "type": "address"
        },
        {
          "internalType": "address",
          "name": "owner",
          "type": "address"
        }
      ],
      "name": "ERC2612InvalidSigner",
      "type": "error"
    },
    {
      "inputs": [
        {
          "internalType": "address",
          "name": "account",
          "type": "address"
        },
        {
          "internalType": "uint256",
          "name": "currentNonce",
          "type": "uint256"
        }
      ],
      "name": "InvalidAccountNonce",
      "type": "error"
    },
    {
      "inputs": [],
      "name": "InvalidShortString",
      "type": "error"
    },
    {
      "inputs": [
        {
          "internalType": "address",
          "name": "owner",
          "type": "address"
        }
      ],
      "name": "OwnableInvalidOwner",
      "type": "error"
    },
    {
      "inputs": [
        {
          "internalType": "address",
          "name": "account",
          "type": "address"
        }
      ],
      "name": "OwnableUnauthorizedAccount",
      "type": "error"
    },
    {
      "inputs": [
        {
          "internalType": "string",
          "name": "str",
          "type": "string"
        }
      ],
      "name": "StringTooLong",
      "type": "error"
    },
    {
      "anonymous": false,
      "inputs": [
        {
          "indexed": true,
          "internalType": "address",
          "name": "owner",
          "type": "address"
        },
        {
          "indexed": true,
          "internalType": "address",
          "name": "spender",
          "type": "address"
        },
        {
          "indexed": false,
          "internalType": "uint256",
          "name": "value",
          "type": "uint256"
        }
      ],
      "name": "Approval",
      "type": "event"
    },
    {
      "anonymous": false,
      "inputs": [],
      "name": "EIP712DomainChanged",
      "type": "event"
    },
    {
      "anonymous": false,
      "inputs": [
        {
          "indexed": true,
          "internalType": "address",
          "name": "receiver",
          "type": "address"
        },
        {
          "indexed": false,
          "internalType": "uint256",
          "name": "amount",
          "type": "uint256"
        }
      ],
      "name": "FaucetClaim",
      "type": "event"
    },
    {
      "anonymous": false,
      "inputs": [
        {
          "indexed": true,
          "internalType": "address",
          "name": "to",
          "type": "address"
        },
        {
          "indexed": false,
          "internalType": "uint256",
          "name": "amount",
          "type": "uint256"
        }
      ],
      "name": "MockPayment",
      "type": "event"
    },
    {
      "anonymous": false,
      "inputs": [
        {
          "indexed": true,
          "internalType": "address",
          "name": "to",
          "type": "address"
        },
        {
          "indexed": false,
          "internalType": "uint256",
          "name": "amount",
          "type": "uint256"
        }
      ],
      "name": "OwnerMint",
      "type": "event"
    },
    {
      "anonymous": false,
      "inputs": [
        {
          "indexed": true,
          "internalType": "address",
          "name": "previousOwner",
          "type": "address"
        },
        {
          "indexed": true,
          "internalType": "address",
          "name": "newOwner",
          "type": "address"
        }
      ],
      "name": "OwnershipTransferStarted",
      "type": "event"
    },
    {
      "anonymous": false,
      "inputs": [
        {
          "indexed": true,
          "internalType": "address",
          "name": "previousOwner",
          "type": "address"
        },
        {
          "indexed": true,
          "internalType": "address",
          "name": "newOwner",
          "type": "address"
        }
      ],
      "name": "OwnershipTransferred",
      "type": "event"
    },
    {
      "anonymous": false,
      "inputs": [
        {
          "indexed": true,
          "internalType": "address",
          "name": "from",
          "type": "address"
        },
        {
          "indexed": true,
          "internalType": "address",
          "name": "to",
          "type": "address"
        },
        {
          "indexed": false,
          "internalType": "uint256",
          "name": "value",
          "type": "uint256"
        }
      ],
      "name": "Transfer",
      "type": "event"
    },
    {
      "inputs": [],
      "name": "DOMAIN_SEPARATOR",
      "outputs": [
        {
          "internalType": "bytes32",
          "name": "",
          "type": "bytes32"
        }
      ],
      "stateMutability": "view",
      "type": "function"
    },
    {
      "inputs": [],
      "name": "acceptOwnership",
      "outputs": [],
      "stateMutability": "nonpayable",
      "type": "function"
    },
    {
      "inputs": [
        {
          "internalType": "address",
          "name": "owner",
          "type": "address"
        },
        {
          "internalType": "address",
          "name": "spender",
          "type": "address"
        }
      ],
      "name": "allowance",
      "outputs": [
        {
          "internalType": "uint256",
          "name": "",
          "type": "uint256"
        }
      ],
      "stateMutability": "view",
      "type": "function"
    },
    {
      "inputs": [
        {
          "internalType": "address",
          "name": "spender",
          "type": "address"
        },
        {
          "internalType": "uint256",
          "name": "value",
          "type": "uint256"
        }
      ],
      "name": "approve",
      "outputs": [
        {
          "internalType": "bool",
          "name": "",
          "type": "bool"
        }
      ],
      "stateMutability": "nonpayable",
      "type": "function"
    },
    {
      "inputs": [
        {
          "internalType": "address",
          "name": "account",
          "type": "address"
        }
      ],
      "name": "balanceOf",
      "outputs": [
        {
          "internalType": "uint256",
          "name": "",
          "type": "uint256"
        }
      ],
      "stateMutability": "view",
      "type": "function"
    },
    {
      "inputs": [],
      "name": "decimals",
      "outputs": [
        {
          "internalType": "uint8",
          "name": "",
          "type": "uint8"
        }
      ],
      "stateMutability": "pure",
      "type": "function"
    },
    {
      "inputs": [],
      "name": "eip712Domain",
      "outputs": [
        {
          "internalType": "bytes1",
          "name": "fields",
          "type": "bytes1"
        },
        {
          "internalType": "string",
          "name": "name",
          "type": "string"
        },
        {
          "internalType": "string",
          "name": "version",
          "type": "string"
        },
        {
          "internalType": "uint256",
          "name": "chainId",
          "type": "uint256"
        },
        {
          "internalType": "address",
          "name": "verifyingContract",
          "type": "address"
        },
        {
          "internalType": "bytes32",
          "name": "salt",
          "type": "bytes32"
        },
        {
          "internalType": "uint256[]",
          "name": "extensions",
          "type": "uint256[]"
        }
      ],
      "stateMutability": "view",
      "type": "function"
    },
    {
      "inputs": [],
      "name": "faucet",
      "outputs": [],
      "stateMutability": "nonpayable",
      "type": "function"
    },
    {
      "inputs": [
        {
          "internalType": "address",
          "name": "_to",
          "type": "address"
        },
        {
          "internalType": "uint256",
          "name": "_amount",
          "type": "uint256"
        }
      ],
      "name": "mockPayment",
      "outputs": [],
      "stateMutability": "nonpayable",
      "type": "function"
    },
    {
      "inputs": [],
      "name": "name",
      "outputs": [
        {
          "internalType": "string",
          "name": "",
          "type": "string"
        }
      ],
      "stateMutability": "view",
      "type": "function"
    },
    {
      "inputs": [
        {
          "internalType": "address",
          "name": "owner",
          "type": "address"
        }
      ],
      "name": "nonces",
      "outputs": [
        {
          "internalType": "uint256",
          "name": "",
          "type": "uint256"
        }
      ],
      "stateMutability": "view",
      "type": "function"
    },
    {
      "inputs": [],
      "name": "owner",
      "outputs": [
        {
          "internalType": "address",
          "name": "",
          "type": "address"
        }
      ],
      "stateMutability": "view",
      "type": "function"
    },
    {
      "inputs": [
        {
          "internalType": "address",
          "name": "to",
          "type": "address"
        },
        {
          "internalType": "uint256",
          "name": "amount",
          "type": "uint256"
        }
      ],
      "name": "ownerMint",
      "outputs": [],
      "stateMutability": "nonpayable",
      "type": "function"
    },
    {
      "inputs": [],
      "name": "pendingOwner",
      "outputs": [
        {
          "internalType": "address",
          "name": "",
          "type": "address"
        }
      ],
      "stateMutability": "view",
      "type": "function"
    },
    {
      "inputs": [
        {
          "internalType": "address",
          "name": "owner",
          "type": "address"
        },
        {
          "internalType": "address",
          "name": "spender",
          "type": "address"
        },
        {
          "internalType": "uint256",
          "name": "value",
          "type": "uint256"
        },
        {
          "internalType": "uint256",
          "name": "deadline",
          "type": "uint256"
        },
        {
          "internalType": "uint8",
          "name": "v",
          "type": "uint8"
        },
        {
          "internalType": "bytes32",
          "name": "r",
          "type": "bytes32"
        },
        {
          "internalType": "bytes32",
          "name": "s",
          "type": "bytes32"
        }
      ],
      "name": "permit",
      "outputs": [],
      "stateMutability": "nonpayable",
      "type": "function"
    },
    {
      "inputs": [],
      "name": "renounceOwnership",
      "outputs": [],
      "stateMutability": "nonpayable",
      "type": "function"
    },
    {
      "inputs": [],
      "name": "symbol",
      "outputs": [
        {
          "internalType": "string",
          "name": "",
          "type": "string"
        }
      ],
      "stateMutability": "view",
      "type": "function"
    },
    {
      "inputs": [],
      "name": "totalSupply",
      "outputs": [
        {
          "internalType": "uint256",
          "name": "",
          "type": "uint256"
        }
      ],
      "stateMutability": "view",
      "type": "function"
    },
    {
      "inputs": [
        {
          "internalType": "address",
          "name": "to",
          "type": "address"
        },
        {
          "internalType": "uint256",
          "name": "value",
          "type": "uint256"
        }
      ],
      "name": "transfer",
      "outputs": [
        {
          "internalType": "bool",
          "name": "",
          "type": "bool"
        }
      ],
      "stateMutability": "nonpayable",
      "type": "function"
    },
    {
      "inputs": [
        {
          "internalType": "address",
          "name": "from",
          "type": "address"
        },
        {
          "internalType": "address",
          "name": "to",
          "type": "address"
        },
        {
          "internalType": "uint256",
          "name": "value",
          "type": "uint256"
        }
      ],
      "name": "transferFrom",
      "outputs": [
        {
          "internalType": "bool",
          "name": "",
          "type": "bool"
        }
      ],
      "stateMutability": "nonpayable",
      "type": "function"
    },
    {
      "inputs": [
        {
          "internalType": "address",
          "name": "newOwner",
          "type": "address"
        }
      ],
      "name": "transferOwnership",
      "outputs": [],
      "stateMutability": "nonpayable",
      "type": "function"
    }
  ],
  "bytecode": "0x610160806040523461055d57602081611a4d80380380916100208285610561565b83398101031261055d57516001600160a01b0381169081900361055d5760405161004b604082610561565b601381526020810172092dcc8dedccae6d2c2dc40a4eae0d2c2d040b606b1b81526040519061007b604083610561565b6013825272092dcc8dedccae6d2c2dc40a4eae0d2c2d040b606b1b6020830152604051926100aa604085610561565b600484526309288a4b60e31b6020850152604051936100ca604086610561565b60018552603160f81b60208601908152845190946001600160401b0382116104605760035490600182811c92168015610553575b60208310146104425781601f8493116104e5575b50602090601f831160011461047f575f92610474575b50508160011b915f199060031b1c1916176003555b8051906001600160401b0382116104605760045490600182811c92168015610456575b60208310146104425781601f8493116103d4575b50602090601f831160011461036e575f92610363575b50508160011b915f199060031b1c1916176004555b6101a881610584565b610120526101b58461070b565b61014052519020918260e05251902080610100524660a0526040519060208201927f8b73c3c69bb8fe3d512ecc4cf759cc79239f7b179b0ffacaa9a75d522b39400f8452604083015260608201524660808201523060a082015260a0815261021e60c082610561565b5190206080523060c052801561035057600980546001600160a01b0319908116909155600880549182168317905581906001600160a01b03167f8be0079c531659141344cd1fd0a4f28419497f9722a3daafe3b4186f6b6457e05f80a36002546b033b2e3c9fd0803ce8000000810180911161033c57600255805f525f60205260405f206b033b2e3c9fd0803ce800000081540190555f7fddf252ad1be2c89b69c2b068fc378daa952ba7f163c4a11628f55a4df523b3ef60206040516b033b2e3c9fd0803ce80000008152a36040516112099081610844823960805181610ddc015260a05181610e99015260c05181610dad015260e05181610e2b01526101005181610e510152610120518161060f015261014051816106380152f35b634e487b7160e01b5f52601160045260245ffd5b631e4fbdf760e01b5f525f60045260245ffd5b015190505f8061018a565b60045f9081528281209350601f198516905b8181106103bc57509084600195949392106103a4575b505050811b0160045561019f565b01515f1960f88460031b161c191690555f8080610396565b92936020600181928786015181550195019301610380565b60045f529091507f8a35acfbc15ff81a39ae7d344fd709f28e8600b4aa8c65c6b64bfe7fe36bd19b601f840160051c81019160208510610438575b90601f859493920160051c01905b81811061042a5750610174565b5f815584935060010161041d565b909150819061040f565b634e487b7160e01b5f52602260045260245ffd5b91607f1691610160565b634e487b7160e01b5f52604160045260245ffd5b015190505f80610128565b60035f9081528281209350601f198516905b8181106104cd57509084600195949392106104b5575b505050811b0160035561013d565b01515f1960f88460031b161c191690555f80806104a7565b92936020600181928786015181550195019301610491565b60035f529091507fc2575a0e9e593c00f959f8c92f12db2869c3395a3b0502d05e2516446f71f85b601f840160051c81019160208510610549575b90601f859493920160051c01905b81811061053b5750610112565b5f815584935060010161052e565b9091508190610520565b91607f16916100fe565b5f80fd5b601f909101601f19168101906001600160401b0382119082101761046057604052565b908151602081105f146105fe575090601f8151116105be5760208151910151602082106105af571790565b5f198260200360031b1b161790565b604460209160405192839163305a27a960e01b83528160048401528051918291826024860152018484015e5f828201840152601f01601f19168101030190fd5b6001600160401b03811161046057600554600181811c91168015610701575b602082101461044257601f81116106ce575b50602092601f821160011461066d57928192935f92610662575b50508160011b915f199060031b1c19161760055560ff90565b015190505f80610649565b601f1982169360055f52805f20915f5b8681106106b6575083600195961061069e575b505050811b0160055560ff90565b01515f1960f88460031b161c191690555f8080610690565b9192602060018192868501518155019401920161067d565b60055f52601f60205f20910160051c810190601f830160051c015b8181106106f6575061062f565b5f81556001016106e9565b90607f169061061d565b908151602081105f14610736575090601f8151116105be5760208151910151602082106105af571790565b6001600160401b03811161046057600654600181811c91168015610839575b602082101461044257601f8111610806575b50602092601f82116001146107a557928192935f9261079a575b50508160011b915f199060031b1c19161760065560ff90565b015190505f80610781565b601f1982169360065f52805f20915f5b8681106107ee57508360019596106107d6575b505050811b0160065560ff90565b01515f1960f88460031b161c191690555f80806107c8565b919260206001819286850151815501940192016107b5565b60065f52601f60205f20910160051c810190601f830160051c015b81811061082e5750610767565b5f8155600101610821565b90607f169061075556fe6080806040526004361015610012575f80fd5b5f3560e01c90816306fdde0314610a9b57508063095ea7b314610a7557806318160ddd14610a5857806323b872dd14610928578063313ce5671461090d5780633644e515146108eb578063484b973c1461088557806370a082311461084e578063715018a6146107e557806379ba5097146107435780637ecebe001461070b57806384b0196e146105f75780638da5cb5b146105d157806395d89b41146104ef5780639a0ba6dc14610434578063a9059cbb14610403578063d505accf1461027d578063dd62ed3e14610229578063de5f72fd1461019b578063e30c3978146101755763f2fde38b14610103575f80fd5b34610171576020366003190112610171576001600160a01b03610124610b61565b61012c610ebf565b16806001600160a01b031960095416176009556001600160a01b03600854167f38d16b8cac22d99fc7c124b9cd0de2d3fa1faef420bfe791d8c362d765e227005f80a3005b5f80fd5b34610171575f3660031901126101715760206001600160a01b0360095416604051908152f35b34610171575f3660031901126101715733156101fd576101c569d3c21bcecceda100000033610f51565b60405169d3c21bcecceda100000081527fcc2505ec091bdc5fd7142331ffc3324587b40a9880fc5272f28515d2249fe05a60203392a2005b7fec442f05000000000000000000000000000000000000000000000000000000005f525f60045260245ffd5b3461017157604036600319011261017157610242610b61565b6001600160a01b03610252610b77565b91165f5260016020526001600160a01b0360405f2091165f52602052602060405f2054604051908152f35b346101715760e036600319011261017157610296610b61565b61029e610b77565b604435906064359260843560ff81168103610171578442116103d7576103926103896001600160a01b039283851697885f52600760205260405f20908154916001830190556040519060208201927f6e71edae12b1b97f4d1f60370fef10105fa2faae0126114a169c64845d6126c984528b6040840152878a1660608401528a608084015260a083015260c082015260c0815261033c60e082610c46565b519020610347610da3565b90604051917f190100000000000000000000000000000000000000000000000000000000000083526002830152602282015260c43591604260a4359220611087565b90929192611114565b168481036103a757506103a59350610eee565b005b84907f4b800e46000000000000000000000000000000000000000000000000000000005f5260045260245260445ffd5b847f62791302000000000000000000000000000000000000000000000000000000005f5260045260245ffd5b346101715760403660031901126101715761042961041f610b61565b6024359033610cc7565b602060405160018152f35b346101715760403660031901126101715761044d610b61565b602435610458610ebf565b6001600160a01b0382169161046e831515610c7c565b81156104ab57816104a27f54478894535873c165d7d99fde563c8ea9f6289f60920c0b815a227b5c14f53f93602093610ed3565b604051908152a2005b606460405162461bcd60e51b815260206004820152601760248201527f416d6f756e74206d757374206265206e6f6e2d7a65726f0000000000000000006044820152fd5b34610171575f366003190112610171576040515f60045461050f81610b8d565b80845290600181169081156105ad575060011461054f575b61054b8361053781850382610c46565b604051918291602083526020830190610b3d565b0390f35b60045f9081527f8a35acfbc15ff81a39ae7d344fd709f28e8600b4aa8c65c6b64bfe7fe36bd19b939250905b80821061059357509091508101602001610537610527565b91926001816020925483858801015201910190929161057b565b60ff191660208086019190915291151560051b840190910191506105379050610527565b34610171575f3660031901126101715760206001600160a01b0360085416604051908152f35b34610171575f366003190112610171576106af6106337f0000000000000000000000000000000000000000000000000000000000000000610fd4565b61065c7f0000000000000000000000000000000000000000000000000000000000000000611050565b60206106bd6040519261066f8385610c46565b5f84525f3681376040519586957f0f00000000000000000000000000000000000000000000000000000000000000875260e08588015260e0870190610b3d565b908582036040870152610b3d565b4660608501523060808501525f60a085015283810360c08501528180845192838152019301915f5b8281106106f457505050500390f35b8351855286955093810193928101926001016106e5565b34610171576020366003190112610171576001600160a01b0361072c610b61565b165f526007602052602060405f2054604051908152f35b34610171575f36600319011261017157336001600160a01b0360095416036107b9576001600160a01b031960095416600955600854336001600160a01b03198216176008556001600160a01b033391167f8be0079c531659141344cd1fd0a4f28419497f9722a3daafe3b4186f6b6457e05f80a3005b7f118cdaa7000000000000000000000000000000000000000000000000000000005f523360045260245ffd5b34610171575f366003190112610171576107fd610ebf565b6001600160a01b0319600954166009555f6001600160a01b036008546001600160a01b03198116600855167f8be0079c531659141344cd1fd0a4f28419497f9722a3daafe3b4186f6b6457e08280a3005b34610171576020366003190112610171576001600160a01b0361086f610b61565b165f525f602052602060405f2054604051908152f35b346101715760403660031901126101715761089e610b61565b7f76dcb19d73dc6c5a49de41d75b9ab52e3d44ca8cd90c330c238bacb4f8b5b4f560206024356108cc610ebf565b6104a2816001600160a01b038616956108e6871515610c7c565b610ed3565b34610171575f366003190112610171576020610905610da3565b604051908152f35b34610171575f36600319011261017157602060405160128152f35b3461017157606036600319011261017157610941610b61565b610949610b77565b604435906001600160a01b03831692835f52600160205260405f206001600160a01b0333165f5260205260405f20545f19811061098c575b506104299350610cc7565b838110610a245784156109f85733156109cc57610429945f52600160205260405f206001600160a01b0333165f526020528360405f209103905584610981565b7f94280d62000000000000000000000000000000000000000000000000000000005f525f60045260245ffd5b7fe602df05000000000000000000000000000000000000000000000000000000005f525f60045260245ffd5b83907ffb8f41b2000000000000000000000000000000000000000000000000000000005f523360045260245260445260645ffd5b34610171575f366003190112610171576020600254604051908152f35b3461017157604036600319011261017157610429610a91610b61565b6024359033610eee565b34610171575f366003190112610171575f600354610ab881610b8d565b80845290600181169081156105ad5750600114610adf5761054b8361053781850382610c46565b60035f9081527fc2575a0e9e593c00f959f8c92f12db2869c3395a3b0502d05e2516446f71f85b939250905b808210610b2357509091508101602001610537610527565b919260018160209254838588010152019101909291610b0b565b805180835260209291819084018484015e5f828201840152601f01601f1916010190565b600435906001600160a01b038216820361017157565b602435906001600160a01b038216820361017157565b90600182811c92168015610bbb575b6020831014610ba757565b634e487b7160e01b5f52602260045260245ffd5b91607f1691610b9c565b5f9291815491610bd483610b8d565b8083529260018116908115610c295750600114610bf057505050565b5f9081526020812093945091925b838310610c0f575060209250010190565b600181602092949394548385870101520191019190610bfe565b915050602093945060ff929192191683830152151560051b010190565b90601f8019910116810190811067ffffffffffffffff821117610c6857604052565b634e487b7160e01b5f52604160045260245ffd5b15610c8357565b606460405162461bcd60e51b815260206004820152601960248201527f496e76616c696420726563697069656e742061646472657373000000000000006044820152fd5b6001600160a01b0316908115610d77576001600160a01b03169182156101fd57815f525f60205260405f2054818110610d4557817fddf252ad1be2c89b69c2b068fc378daa952ba7f163c4a11628f55a4df523b3ef92602092855f525f84520360405f2055845f525f825260405f20818154019055604051908152a3565b827fe450d38c000000000000000000000000000000000000000000000000000000005f5260045260245260445260645ffd5b7f96c6fd1e000000000000000000000000000000000000000000000000000000005f525f60045260245ffd5b6001600160a01b037f000000000000000000000000000000000000000000000000000000000000000016301480610e96575b15610dfe577f000000000000000000000000000000000000000000000000000000000000000090565b60405160208101907f8b73c3c69bb8fe3d512ecc4cf759cc79239f7b179b0ffacaa9a75d522b39400f82527f000000000000000000000000000000000000000000000000000000000000000060408201527f000000000000000000000000000000000000000000000000000000000000000060608201524660808201523060a082015260a08152610e9060c082610c46565b51902090565b507f00000000000000000000000000000000000000000000000000000000000000004614610dd5565b6001600160a01b036008541633036107b957565b906001600160a01b038216156101fd57610eec91610f51565b565b6001600160a01b03169081156109f8576001600160a01b03169182156109cc5760207f8c5be1e5ebec7d5bd14f71427d1e84f3dd0314c0f7b2291e5b200ac8c7c3b92591835f526001825260405f20855f5282528060405f2055604051908152a3565b600254828101809111610fc05760206001600160a01b035f937fddf252ad1be2c89b69c2b068fc378daa952ba7f163c4a11628f55a4df523b3ef93600255169384158414610fab5780600254036002555b604051908152a3565b84845283825260408420818154019055610fa2565b634e487b7160e01b5f52601160045260245ffd5b60ff81146110335760ff811690601f821161100b5760405191610ff8604084610c46565b6020808452838101919036833783525290565b7fb3512b0c000000000000000000000000000000000000000000000000000000005f5260045ffd5b5060405161104d81611046816005610bc5565b0382610c46565b90565b60ff81146110745760ff811690601f821161100b5760405191610ff8604084610c46565b5060405161104d81611046816006610bc5565b91907f7fffffffffffffffffffffffffffffff5d576e7357a4501ddfe92f46681b20a08411611109579160209360809260ff5f9560405194855216868401526040830152606082015282805260015afa156110fe575f516001600160a01b038116156110f457905f905f90565b505f906001905f90565b6040513d5f823e3d90fd5b5050505f9160039190565b60048110156111bf5780611126575050565b60018103611156577ff645eedf000000000000000000000000000000000000000000000000000000005f5260045ffd5b6002810361118a57507ffce698f7000000000000000000000000000000000000000000000000000000005f5260045260245ffd5b6003146111945750565b7fd78bce0c000000000000000000000000000000000000000000000000000000005f5260045260245ffd5b634e487b7160e01b5f52602160045260245ffdfea2646970667358221220b6be6f1d96a03543cb874d2b915a2a6b8fb6e47cd0fe23761d859ebff54fa21264736f6c634300081c0033",
  "linkReferences": {},
  "deployedLinkReferences": {},
  "immutableReferences": {
    "4577": [
      {
        "length": 32,
        "start": 3548
      }
    ],
    "4579": [
      {
        "length": 32,
        "start": 3737
      }
    ],
    "4581": [
      {
        "length": 32,
        "start": 3501
      }
    ],
    "4583": [
      {
        "length": 32,
        "start": 3627
      }
    ],
    "4585": [
      {
        "length": 32,
        "start": 3665
      }
    ],
    "4588": [
      {
        "length": 32,
        "start": 1551
      }
    ],
    "4591": [
      {
        "length": 32,
        "start": 1592
      }
    ]
  },
  "inputSourceName": "project/contracts/MockIDRX.sol",
  "buildInfoId": "solc-0_8_28-a50dd647bce88c3e45fe0006cce1ce14be5de618"
}