{
  "_format": "hh3-artifact-1",
  "contractName": "EtharisEscrow",
  "sourceName": "contracts/EtharisEscrow.sol",
  "abi": [
    {
      "inputs": [
        {
          "internalType": "address",
          "name": "idrxToken_",
          "type": "address"
        },
        {
          "internalType": "address",
          "name": "feeRecipient_",
          "type": "address"
        },
        {
          "internalType": "address",
          "name": "initialOwner_",
          "type": "address"
        }
      ],
      "stateMutability": "payable",
      "type": "constructor"
    },
    {
      "inputs": [],
      "name": "AccessControlBadConfirmation",
      "type": "error"
    },
    {
      "inputs": [
        {
          "internalType": "address",
          "name": "account",
          "type": "address"
        },
        {
          "internalType": "bytes32",
          "name": "neededRole",
          "type": "bytes32"
        }
      ],
      "name": "AccessControlUnauthorizedAccount",
      "type": "error"
    },
    {
      "inputs": [],
      "name": "AmountMustBeGreaterThanZero",
      "type": "error"
    },
    {
      "inputs": [],
      "name": "BriefHashRequired",
      "type": "error"
    },
    {
      "inputs": [],
      "name": "CannotCancelThisDeal",
      "type": "error"
    },
    {
      "inputs": [],
      "name": "CannotWithdrawIDRX",
      "type": "error"
    },
    {
      "inputs": [],
      "name": "ContentUrlRequired",
      "type": "error"
    },
    {
      "inputs": [],
      "name": "CreatorCannotBeBrand",
      "type": "error"
    },
    {
      "inputs": [],
      "name": "DeadlineMustBeInFuture",
      "type": "error"
    },
    {
      "inputs": [],
      "name": "DeadlineNotPassed",
      "type": "error"
    },
    {
      "inputs": [],
      "name": "DealAlreadyExists",
      "type": "error"
    },
    {
      "inputs": [],
      "name": "DealAlreadyFunded",
      "type": "error"
    },
    {
      "inputs": [],
      "name": "DealNotFound",
      "type": "error"
    },
    {
      "inputs": [],
      "name": "DealNotFunded",
      "type": "error"
    },
    {
      "inputs": [],
      "name": "EnforcedPause",
      "type": "error"
    },
    {
      "inputs": [],
      "name": "ExpectedPause",
      "type": "error"
    },
    {
      "inputs": [],
      "name": "FeeTooHigh",
      "type": "error"
    },
    {
      "inputs": [],
      "name": "InsufficientAllowance",
      "type": "error"
    },
    {
      "inputs": [],
      "name": "InsufficientBalance",
      "type": "error"
    },
    {
      "inputs": [],
      "name": "InvalidAddress",
      "type": "error"
    },
    {
      "inputs": [],
      "name": "InvalidAmount",
      "type": "error"
    },
    {
      "inputs": [],
      "name": "InvalidDealID",
      "type": "error"
    },
    {
      "inputs": [],
      "name": "InvalidDealStatus",
      "type": "error"
    },
    {
      "inputs": [],
      "name": "NotAuthorized",
      "type": "error"
    },
    {
      "inputs": [],
      "name": "PermitFailed",
      "type": "error"
    },
    {
      "inputs": [],
      "name": "ReasonRequired",
      "type": "error"
    },
    {
      "inputs": [],
      "name": "ReentrancyGuardReentrantCall",
      "type": "error"
    },
    {
      "inputs": [],
      "name": "ReviewPeriodEnded",
      "type": "error"
    },
    {
      "inputs": [],
      "name": "ReviewPeriodNotEnded",
      "type": "error"
    },
    {
      "inputs": [
        {
          "internalType": "address",
          "name": "token",
          "type": "address"
        }
      ],
      "name": "SafeERC20FailedOperation",
      "type": "error"
    },
    {
      "inputs": [],
      "name": "SubmissionDeadlinePassed",
      "type": "error"
    },
    {
      "anonymous": false,
      "inputs": [
        {
          "indexed": true,
          "internalType": "string",
          "name": "dealId",
          "type": "string"
        },
        {
          "indexed": true,
          "internalType": "address",
          "name": "creator",
          "type": "address"
        },
        {
          "indexed": false,
          "internalType": "string",
          "name": "contentUrl",
          "type": "string"
        },
        {
          "indexed": false,
          "internalType": "uint64",
          "name": "reviewDeadline",
          "type": "uint64"
        }
      ],
      "name": "ContentSubmitted",
      "type": "event"
    },
    {
      "anonymous": false,
      "inputs": [
        {
          "indexed": true,
          "internalType": "string",
          "name": "dealId",
          "type": "string"
        },
        {
          "indexed": true,
          "internalType": "address",
          "name": "brand",
          "type": "address"
        }
      ],
      "name": "DealApproved",
      "type": "event"
    },
    {
      "anonymous": false,
      "inputs": [
        {
          "indexed": true,
          "internalType": "string",
          "name": "dealId",
          "type": "string"
        },
        {
          "indexed": true,
          "internalType": "address",
          "name": "initiator",
          "type": "address"
        },
        {
          "indexed": false,
          "internalType": "uint96",
          "name": "refundAmount",
          "type": "uint96"
        }
      ],
      "name": "DealCancelled",
      "type": "event"
    },
    {
      "anonymous": false,
      "inputs": [
        {
          "indexed": true,
          "internalType": "string",
          "name": "dealId",
          "type": "string"
        },
        {
          "indexed": true,
          "internalType": "address",
          "name": "brand",
          "type": "address"
        },
        {
          "indexed": true,
          "internalType": "address",
          "name": "creator",
          "type": "address"
        },
        {
          "indexed": false,
          "internalType": "uint96",
          "name": "amount",
          "type": "uint96"
        },
        {
          "indexed": false,
          "internalType": "uint64",
          "name": "deadline",
          "type": "uint64"
        }
      ],
      "name": "DealCreated",
      "type": "event"
    },
    {
      "anonymous": false,
      "inputs": [
        {
          "indexed": true,
          "internalType": "string",
          "name": "dealId",
          "type": "string"
        },
        {
          "indexed": true,
          "internalType": "address",
          "name": "brand",
          "type": "address"
        },
        {
          "indexed": false,
          "internalType": "uint96",
          "name": "amount",
          "type": "uint96"
        }
      ],
      "name": "DealFunded",
      "type": "event"
    },
    {
      "anonymous": false,
      "inputs": [
        {
          "indexed": true,
          "internalType": "string",
          "name": "dealId",
          "type": "string"
        },
        {
          "indexed": true,
          "internalType": "address",
          "name": "brand",
          "type": "address"
        },
        {
          "indexed": false,
          "internalType": "string",
          "name": "reason",
          "type": "string"
        }
      ],
      "name": "DisputeInitiated",
      "type": "event"
    },
    {
      "anonymous": false,
      "inputs": [
        {
          "indexed": true,
          "internalType": "string",
          "name": "dealId",
          "type": "string"
        },
        {
          "indexed": true,
          "internalType": "address",
          "name": "creator",
          "type": "address"
        },
        {
          "indexed": false,
          "internalType": "bool",
          "name": "acceptedDispute",
          "type": "bool"
        },
        {
          "indexed": false,
          "internalType": "uint96",
          "name": "creatorAmount",
          "type": "uint96"
        },
        {
          "indexed": false,
          "internalType": "uint96",
          "name": "brandRefund",
          "type": "uint96"
        }
      ],
      "name": "DisputeResolved",
      "type": "event"
    },
    {
      "anonymous": false,
      "inputs": [
        {
          "indexed": false,
          "internalType": "address",
          "name": "oldRecipient",
          "type": "address"
        },
        {
          "indexed": false,
          "internalType": "address",
          "name": "newRecipient",
          "type": "address"
        }
      ],
      "name": "FeeRecipientUpdated",
      "type": "event"
    },
    {
      "anonymous": false,
      "inputs": [
        {
          "indexed": false,
          "internalType": "address",
          "name": "account",
          "type": "address"
        }
      ],
      "name": "Paused",
      "type": "event"
    },
    {
      "anonymous": false,
      "inputs": [
        {
          "indexed": true,
          "internalType": "string",
          "name": "dealId",
          "type": "string"
        },
        {
          "indexed": true,
          "internalType": "address",
          "name": "creator",
          "type": "address"
        },
        {
          "indexed": false,
          "internalType": "uint96",
          "name": "amount",
          "type": "uint96"
        },
        {
          "indexed": false,
          "internalType": "uint96",
          "name": "platformFee",
          "type": "uint96"
        }
      ],
      "name": "PaymentReleased",
      "type": "event"
    },
    {
      "anonymous": false,
      "inputs": [
        {
          "indexed": false,
          "internalType": "uint96",
          "name": "oldFee",
          "type": "uint96"
        },
        {
          "indexed": false,
          "internalType": "uint96",
          "name": "newFee",
          "type": "uint96"
        }
      ],
      "name": "PlatformFeeUpdated",
      "type": "event"
    },
    {
      "anonymous": false,
      "inputs": [
        {
          "indexed": true,
          "internalType": "bytes32",
          "name": "role",
          "type": "bytes32"
        },
        {
          "indexed": true,
          "internalType": "bytes32",
          "name": "previousAdminRole",
          "type": "bytes32"
        },
        {
          "indexed": true,
          "internalType": "bytes32",
          "name": "newAdminRole",
          "type": "bytes32"
        }
      ],
      "name": "RoleAdminChanged",
      "type": "event"
    },
    {
      "anonymous": false,
      "inputs": [
        {
          "indexed": true,
          "internalType": "bytes32",
          "name": "role",
          "type": "bytes32"
        },
        {
          "indexed": true,
          "internalType": "address",
          "name": "account",
          "type": "address"
        },
        {
          "indexed": true,
          "internalType": "address",
          "name": "sender",
          "type": "address"
        }
      ],
      "name": "RoleGranted",
      "type": "event"
    },
    {
      "anonymous": false,
      "inputs": [
        {
          "indexed": true,
          "internalType": "bytes32",
          "name": "role",
          "type": "bytes32"
        },
        {
          "indexed": true,
          "internalType": "address",
          "name": "account",
          "type": "address"
        },
        {
          "indexed": true,
          "internalType": "address",
          "name": "sender",
          "type": "address"
        }
      ],
      "name": "RoleRevoked",
      "type": "event"
    },
    {
      "anonymous": false,
      "inputs": [
        {
          "indexed": false,
          "internalType": "address",
          "name": "account",
          "type": "address"
        }
      ],
      "name": "Unpaused",
      "type": "event"
    },
    {
      "inputs": [],
      "name": "DEFAULT_ADMIN_ROLE",
      "outputs": [
        {
          "internalType": "bytes32",
          "name": "",
          "type": "bytes32"
        }
      ],
      "stateMutability": "view",
      "type": "function"
    },
    {
      "inputs": [],
      "name": "SERVER_ROLE",
      "outputs": [
        {
          "internalType": "bytes32",
          "name": "",
          "type": "bytes32"
        }
      ],
      "stateMutability": "view",
      "type": "function"
    },
    {
      "inputs": [
        {
          "internalType": "string",
          "name": "_dealId",
          "type": "string"
        },
        {
          "internalType": "address",
          "name": "_creatorAddress",
          "type": "address"
        }
      ],
      "name": "acceptDeal",
      "outputs": [],
      "stateMutability": "nonpayable",
      "type": "function"
    },
    {
      "inputs": [
        {
          "internalType": "string",
          "name": "_dealId",
          "type": "string"
        },
        {
          "internalType": "address",
          "name": "_brandAddress",
          "type": "address"
        }
      ],
      "name": "approveDeal",
      "outputs": [],
      "stateMutability": "nonpayable",
      "type": "function"
    },
    {
      "inputs": [
        {
          "internalType": "string",
          "name": "_dealId",
          "type": "string"
        }
      ],
      "name": "autoRefundAfterDeadline",
      "outputs": [],
      "stateMutability": "nonpayable",
      "type": "function"
    },
    {
      "inputs": [
        {
          "internalType": "string",
          "name": "_dealId",
          "type": "string"
        }
      ],
      "name": "autoReleasePayment",
      "outputs": [],
      "stateMutability": "nonpayable",
      "type": "function"
    },
    {
      "inputs": [
        {
          "internalType": "address",
          "name": "_brand",
          "type": "address"
        }
      ],
      "name": "brandDeals",
      "outputs": [
        {
          "internalType": "string[]",
          "name": "",
          "type": "string[]"
        }
      ],
      "stateMutability": "view",
      "type": "function"
    },
    {
      "inputs": [
        {
          "internalType": "string",
          "name": "_dealId",
          "type": "string"
        }
      ],
      "name": "canAutoRelease",
      "outputs": [
        {
          "internalType": "bool",
          "name": "",
          "type": "bool"
        }
      ],
      "stateMutability": "view",
      "type": "function"
    },
    {
      "inputs": [
        {
          "internalType": "string",
          "name": "_dealId",
          "type": "string"
        },
        {
          "internalType": "address",
          "name": "_brandAddress",
          "type": "address"
        }
      ],
      "name": "cancelDeal",
      "outputs": [],
      "stateMutability": "nonpayable",
      "type": "function"
    },
    {
      "inputs": [
        {
          "internalType": "string",
          "name": "_dealId",
          "type": "string"
        },
        {
          "internalType": "address",
          "name": "_brandAddress",
          "type": "address"
        },
        {
          "internalType": "address",
          "name": "_creatorAddress",
          "type": "address"
        },
        {
          "internalType": "uint96",
          "name": "_amount",
          "type": "uint96"
        },
        {
          "internalType": "uint64",
          "name": "_deadline",
          "type": "uint64"
        },
        {
          "internalType": "string",
          "name": "_briefHash",
          "type": "string"
        }
      ],
      "name": "createDeal",
      "outputs": [],
      "stateMutability": "nonpayable",
      "type": "function"
    },
    {
      "inputs": [
        {
          "internalType": "address",
          "name": "_creator",
          "type": "address"
        }
      ],
      "name": "creatorDeals",
      "outputs": [
        {
          "internalType": "string[]",
          "name": "",
          "type": "string[]"
        }
      ],
      "stateMutability": "view",
      "type": "function"
    },
    {
      "inputs": [
        {
          "internalType": "string",
          "name": "_dealId",
          "type": "string"
        }
      ],
      "name": "deals",
      "outputs": [
        {
          "components": [
            {
              "internalType": "address",
              "name": "brand",
              "type": "address"
            },
            {
              "internalType": "address",
              "name": "creator",
              "type": "address"
            },
            {
              "internalType": "string",
              "name": "dealId",
              "type": "string"
            },
            {
              "internalType": "string",
              "name": "briefHash",
              "type": "string"
            },
            {
              "internalType": "string",
              "name": "contentUrl",
              "type": "string"
            },
            {
              "internalType": "string",
              "name": "disputeReason",
              "type": "string"
            },
            {
              "internalType": "uint96",
              "name": "amount",
              "type": "uint96"
            },
            {
              "internalType": "uint64",
              "name": "deadline",
              "type": "uint64"
            },
            {
              "internalType": "uint64",
              "name": "fundedAt",
              "type": "uint64"
            },
            {
              "internalType": "uint64",
              "name": "submittedAt",
              "type": "uint64"
            },
            {
              "internalType": "uint64",
              "name": "reviewDeadline",
              "type": "uint64"
            },
            {
              "internalType": "uint64",
              "name": "disputedAt",
              "type": "uint64"
            },
            {
              "internalType": "uint64",
              "name": "createdAt",
              "type": "uint64"
            },
            {
              "internalType": "enum EtharisEscrow.ContractStatus",
              "name": "status",
              "type": "uint8"
            },
            {
              "internalType": "bool",
              "name": "acceptedDispute",
              "type": "bool"
            },
            {
              "internalType": "bool",
              "name": "exists",
              "type": "bool"
            }
          ],
          "internalType": "struct EtharisEscrow.Deal",
          "name": "",
          "type": "tuple"
        }
      ],
      "stateMutability": "view",
      "type": "function"
    },
    {
      "inputs": [
        {
          "internalType": "string",
          "name": "_dealId",
          "type": "string"
        }
      ],
      "name": "emergencyCancelDeal",
      "outputs": [],
      "stateMutability": "nonpayable",
      "type": "function"
    },
    {
      "inputs": [
        {
          "internalType": "address",
          "name": "_token",
          "type": "address"
        },
        {
          "internalType": "uint256",
          "name": "_amount",
          "type": "uint256"
        }
      ],
      "name": "emergencyWithdraw",
      "outputs": [],
      "stateMutability": "nonpayable",
      "type": "function"
    },
    {
      "inputs": [],
      "name": "feeRecipient",
      "outputs": [
        {
          "internalType": "address",
          "name": "",
          "type": "address"
        }
      ],
      "stateMutability": "view",
      "type": "function"
    },
    {
      "inputs": [
        {
          "internalType": "string",
          "name": "_dealId",
          "type": "string"
        },
        {
          "internalType": "address",
          "name": "_brandAddress",
          "type": "address"
        },
        {
          "internalType": "uint96",
          "name": "_amount",
          "type": "uint96"
        },
        {
          "internalType": "uint256",
          "name": "_deadline",
          "type": "uint256"
        },
        {
          "internalType": "uint8",
          "name": "_v",
          "type": "uint8"
        },
        {
          "internalType": "bytes32",
          "name": "_r",
          "type": "bytes32"
        },
        {
          "internalType": "bytes32",
          "name": "_s",
          "type": "bytes32"
        }
      ],
      "name": "fundDeal",
      "outputs": [],
      "stateMutability": "nonpayable",
      "type": "function"
    },
    {
      "inputs": [
        {
          "internalType": "string",
          "name": "_dealId",
          "type": "string"
        }
      ],
      "name": "getDeal",
      "outputs": [
        {
          "internalType": "string",
          "name": "dealId",
          "type": "string"
        },
        {
          "internalType": "address",
          "name": "brand",
          "type": "address"
        },
        {
          "internalType": "address",
          "name": "creator",
          "type": "address"
        },
        {
          "internalType": "uint96",
          "name": "amount",
          "type": "uint96"
        },
        {
          "internalType": "uint64",
          "name": "deadline",
          "type": "uint64"
        },
        {
          "internalType": "enum EtharisEscrow.ContractStatus",
          "name": "status",
          "type": "uint8"
        },
        {
          "internalType": "string",
          "name": "briefHash",
          "type": "string"
        },
        {
          "internalType": "string",
          "name": "contentUrl",
          "type": "string"
        },
        {
          "internalType": "string",
          "name": "disputeReason",
          "type": "string"
        },
        {
          "internalType": "uint64",
          "name": "reviewDeadline",
          "type": "uint64"
        },
        {
          "internalType": "uint64",
          "name": "fundedAt",
          "type": "uint64"
        },
        {
          "internalType": "uint64",
          "name": "submittedAt",
          "type": "uint64"
        },
        {
          "internalType": "uint64",
          "name": "disputedAt",
          "type": "uint64"
        },
        {
          "internalType": "uint64",
          "name": "createdAt",
          "type": "uint64"
        },
        {
          "internalType": "bool",
          "name": "acceptedDispute",
          "type": "bool"
        },
        {
          "internalType": "bool",
          "name": "exists",
          "type": "bool"
        }
      ],
      "stateMutability": "view",
      "type": "function"
    },
    {
      "inputs": [
        {
          "internalType": "address",
          "name": "_userAddress",
          "type": "address"
        },
        {
          "internalType": "bool",
          "name": "_isBrand",
          "type": "bool"
        }
      ],
      "name": "getDeals",
      "outputs": [
        {
          "internalType": "string[]",
          "name": "",
          "type": "string[]"
        }
      ],
      "stateMutability": "view",
      "type": "function"
    },
    {
      "inputs": [
        {
          "internalType": "bytes32",
          "name": "role",
          "type": "bytes32"
        }
      ],
      "name": "getRoleAdmin",
      "outputs": [
        {
          "internalType": "bytes32",
          "name": "",
          "type": "bytes32"
        }
      ],
      "stateMutability": "view",
      "type": "function"
    },
    {
      "inputs": [
        {
          "internalType": "bytes32",
          "name": "role",
          "type": "bytes32"
        },
        {
          "internalType": "address",
          "name": "account",
          "type": "address"
        }
      ],
      "name": "grantRole",
      "outputs": [],
      "stateMutability": "nonpayable",
      "type": "function"
    },
    {
      "inputs": [
        {
          "internalType": "bytes32",
          "name": "role",
          "type": "bytes32"
        },
        {
          "internalType": "address",
          "name": "account",
          "type": "address"
        }
      ],
      "name": "hasRole",
      "outputs": [
        {
          "internalType": "bool",
          "name": "",
          "type": "bool"
        }
      ],
      "stateMutability": "view",
      "type": "function"
    },
    {
      "inputs": [],
      "name": "idrxToken",
      "outputs": [
        {
          "internalType": "address",
          "name": "",
          "type": "address"
        }
      ],
      "stateMutability": "view",
      "type": "function"
    },
    {
      "inputs": [
        {
          "internalType": "string",
          "name": "_dealId",
          "type": "string"
        },
        {
          "internalType": "address",
          "name": "_brandAddress",
          "type": "address"
        },
        {
          "internalType": "string",
          "name": "_reason",
          "type": "string"
        }
      ],
      "name": "initiateDispute",
      "outputs": [],
      "stateMutability": "nonpayable",
      "type": "function"
    },
    {
      "inputs": [],
      "name": "pause",
      "outputs": [],
      "stateMutability": "nonpayable",
      "type": "function"
    },
    {
      "inputs": [],
      "name": "paused",
      "outputs": [
        {
          "internalType": "bool",
          "name": "",
          "type": "bool"
        }
      ],
      "stateMutability": "view",
      "type": "function"
    },
    {
      "inputs": [],
      "name": "platformFeeBps",
      "outputs": [
        {
          "internalType": "uint96",
          "name": "",
          "type": "uint96"
        }
      ],
      "stateMutability": "view",
      "type": "function"
    },
    {
      "inputs": [
        {
          "internalType": "bytes32",
          "name": "role",
          "type": "bytes32"
        },
        {
          "internalType": "address",
          "name": "callerConfirmation",
          "type": "address"
        }
      ],
      "name": "renounceRole",
      "outputs": [],
      "stateMutability": "nonpayable",
      "type": "function"
    },
    {
      "inputs": [
        {
          "internalType": "string",
          "name": "_dealId",
          "type": "string"
        },
        {
          "internalType": "address",
          "name": "_creatorAddress",
          "type": "address"
        },
        {
          "internalType": "bool",
          "name": "_acceptDispute",
          "type": "bool"
        }
      ],
      "name": "resolveDispute",
      "outputs": [],
      "stateMutability": "nonpayable",
      "type": "function"
    },
    {
      "inputs": [
        {
          "internalType": "bytes32",
          "name": "role",
          "type": "bytes32"
        },
        {
          "internalType": "address",
          "name": "account",
          "type": "address"
        }
      ],
      "name": "revokeRole",
      "outputs": [],
      "stateMutability": "nonpayable",
      "type": "function"
    },
    {
      "inputs": [
        {
          "internalType": "string",
          "name": "_dealId",
          "type": "string"
        },
        {
          "internalType": "address",
          "name": "_creatorAddress",
          "type": "address"
        },
        {
          "internalType": "string",
          "name": "_contentUrl",
          "type": "string"
        }
      ],
      "name": "submitContent",
      "outputs": [],
      "stateMutability": "nonpayable",
      "type": "function"
    },
    {
      "inputs": [
        {
          "internalType": "bytes4",
          "name": "interfaceId",
          "type": "bytes4"
        }
      ],
      "name": "supportsInterface",
      "outputs": [
        {
          "internalType": "bool",
          "name": "",
          "type": "bool"
        }
      ],
      "stateMutability": "view",
      "type": "function"
    },
    {
      "inputs": [],
      "name": "unpause",
      "outputs": [],
      "stateMutability": "nonpayable",
      "type": "function"
    },
    {
      "inputs": [
        {
          "internalType": "address",
          "name": "_newRecipient",
          "type": "address"
        }
      ],
      "name": "updateFeeRecipient",
      "outputs": [],
      "stateMutability": "nonpayable",
      "type": "function"
    },
    {
      "inputs": [
        {
          "internalType": "uint96",
          "name": "_newFeeBps",
          "type": "uint96"
        }
      ],
      "name": "updatePlatformFee",
      "outputs": [],
      "stateMutability": "nonpayable",
      "type": "function"
    }
  ],
  "bytecode": "0x60a0601f61334238819003918201601f19168301916001600160401b038311848410176101705780849260609460405283398101031261016c5761004281610184565b61005a604061005360208501610184565b9301610184565b60015f556001600160a01b0390911691821561015d576001600160a01b0381161561015d576001600160a01b0382161561015d576100ad9260805260018060601b03199060601b1660fa17600355610198565b505f5160206133225f395f51905f525f81815260026020527fef73bf2ac44f84561b5498839ab1c8c5a4dd99305d838aea0d76c5961778535d805490839055604051929182907fbd79b86ffe0ab8e8776151514217cd7cacd52c909f66475c3af44e129f0b00ff9080a46130d19081610231823960805181818161039101528181610c9e01528181610d43015281816113650152818161194801528181611f05015281816121f701526123a50152f35b63e6c4247b60e01b5f5260045ffd5b5f80fd5b634e487b7160e01b5f52604160045260245ffd5b51906001600160a01b038216820361016c57565b6001600160a01b0381165f9081525f5160206133025f395f51905f52602052604090205460ff1661022b576001600160a01b03165f8181525f5160206133025f395f51905f5260205260408120805460ff191660011790553391905f5160206133225f395f51905f52907f2f8788117e7eff1d82e926ec794901d17c78024a50270940304540a733656f0d9080a4600190565b505f9056fe6080806040526004361015610012575f80fd5b5f905f3560e01c90816301ffc9a7146127035750806303f715da146126135780630e59a3951461244057806318cf2834146124065780631a1aaeed1461229957806322dcd13e14612273578063248a9ca31461224057806324d956c8146120985780632f2ff15d1461205a578063317b8c5b1461202557806336568abe14611fc857806338a1328714611dc35780633f4ba83a14611d445780634690484014611d245780634971716f14611b175780635c975abb14611af557806376492d3f14611a4b5780638456cb59146119f357806391d14854146119a957806395ccea671461190f5780639b1221ab146117dc5780639f1cf42d146112225780639fad59b41461117e578063a0a57dac14610e46578063a217fddf14610e2a578063aed1505d14610daf578063d547741f14610d67578063d6bc7c6314610d23578063e39fff3814610b5c578063e4abd4cb146107a9578063e7079180146105e2578063ef03c10e14610242578063f0c3cd20146101c35763f160d36914610194575f80fd5b346101c05760203660031901126101c0576101bd6101b0612860565b6101b8612daf565b612d12565b80f35b80fd5b50346101c05760203660031901126101c0576001600160a01b036101e5612860565b1681526005602052604081208054906101fd82612c04565b92602084019181526020812090915b8383106102255760405180610221878261293e565b0390f35b60016020819261023485612c2c565b81520192019201919061020c565b50346101c05760603660031901126101c05760043567ffffffffffffffff81116105de576102749036906004016127f4565b61027c61284a565b9060443590811515908183036105da57610294612e93565b61029c612daf565b6102a4612e5f565b60405160ff6008835192602081818701958087835e81016004815203019020015460101c16156105cb576001600160a01b0380600160405160208187518088835e8101600481520301902001541695168095036105bc5760ff600860405160208186518087835e8101600481520301902001541660068110156105a857600303610599576020604051809284518091835e81016004815203019020926001600160601b03600685015416916001600160a01b03600186015416956001600160a01b038654169260086003549701600460ff19825416178155805461ff008860081b169061ff0019161790557f0000000000000000000000000000000000000000000000000000000000000000905f146105295761138885026001600160601b038116908103610515578890612710900495866103df91612b30565b916103f36001600160601b038a1688612b0d565b6001600160601b031661271090049788978861040e91612b30565b996001600160601b038b16928315157f8531198e5d946af9a770d2eeba00258645e163142d835fe1b04e45f4db720f8b9b6104bb9a7fea4ea4b4229888eeba3eb2772df89c52af23c7fe3d530b0c1f2ca146f32c12ba976060976001600160601b0394610504575b5050828916806104f3575b50501690816104df575b5050505b6001600160601b036104a0876129aa565b94604051928352818c166020840152166040820152a36129aa565b604080516001600160601b0395861681529290941660208301529290a36001815580f35b6104eb92851c90612eca565b5f808061048b565b6104fd9185612eca565b5f80610481565b61050e9186612eca565b8f5f610476565b60248a634e487b7160e01b81526011600452fd5b95506104bb92937fea4ea4b4229888eeba3eb2772df89c52af23c7fe3d530b0c1f2ca146f32c12ba60607f8531198e5d946af9a770d2eeba00258645e163142d835fe1b04e45f4db720f8b978b99848d9981610588575b50505061048f565b61059192612eca565b5f8080610580565b600486635e40b94f60e01b8152fd5b602487634e487b7160e01b81526021600452fd5b60048663ea8e4eb560e01b8152fd5b60048663223da47360e21b8152fd5b8480fd5b5080fd5b50346101c05760203660031901126101c05760043567ffffffffffffffff81116105de576020610617819236906004016127f4565b604051928184925191829101835e8101600481520301902060088101549160ff8360101c1615908161079a575081546001600160a01b03169060018301546001600160a01b0316936006840154926007850154906002860161067890612c2c565b9561068560038201612c2c565b61069160048301612c2c565b9160050161069e90612c2c565b92604051998a996102008b526102008b016106b89161291a565b9160208b015260408a01526001600160601b03881660608a01528760601c67ffffffffffffffff1660808a015260a0890160ff8716906106f79161299d565b88810360c08a01526107089161291a565b87810360e08901526107199161291a565b86810361010088015261072b9161291a565b938160401c67ffffffffffffffff1661012087015260a01c67ffffffffffffffff1661014086015267ffffffffffffffff81166101608601528060801c67ffffffffffffffff1661018086015260c01c6101a085015260081c60ff1615156101c0840152156101e08301520390f35b8063223da47360e21b60049252fd5b50346101c05760c03660031901126101c05760043567ffffffffffffffff81116105de576107db9036906004016127f4565b6107e361284a565b604435916001600160a01b038316809303610b58576064356001600160601b0381168091036105da576084359167ffffffffffffffff831692838103610b545760a43567ffffffffffffffff8111610b50576108439036906004016127f4565b61084b612daf565b610853612e5f565b6040519560ff60088551986020818189019b808d835e81016004815203019020015460101c16610b28578715610b19576001600160a01b0316958615610b1957878714610af1578415610ac95742861115610aa157815115610a7957927fceb1a488be98b2739817f21e7d3b0a343434519cd0fe4db3ef5fc27a96e8d295949261099f610a4b9360409660208851809287518091835e81016004815203019020926109018560028601612a14565b8a73ffffffffffffffffffffffffffffffffffffffff19855416178455600184018c73ffffffffffffffffffffffffffffffffffffffff198254161790556006840190876001600160601b03198354161782557fffffffffffffffffffffffff0000000000000000ffffffffffffffffffffffff73ffffffffffffffff00000000000000000000000083549260601b16911617905560038301612a14565b896004600883019260ff19845416845560078101805477ffffffffffffffffffffffffffffffffffffffffffffffff7fffffffffffffffff0000000000000000000000000000000000000000000000004260c01b16911617905501610a0481546129c6565b601f8111610a5a575b50556201000062ff0000198254161790558689526005602052610a3281858b20612ccc565b8789526006602052610a4681858b20612ccc565b6129aa565b9382519182526020820152a480f35b81835260208320610a7391601f0160051c8101906129fe565b5f610a0d565b6004897f3f26e808000000000000000000000000000000000000000000000000000000008152fd5b6004897f0642ce77000000000000000000000000000000000000000000000000000000008152fd5b6004897f5e85ae73000000000000000000000000000000000000000000000000000000008152fd5b6004897f93680d14000000000000000000000000000000000000000000000000000000008152fd5b60048963e6c4247b60e01b8152fd5b6004897f714d500e000000000000000000000000000000000000000000000000000000008152fd5b8780fd5b8680fd5b8380fd5b50346101c05760203660031901126101c05760043567ffffffffffffffff81116105de57610b8e9036906004016127f4565b610b96612e93565b610b9e612daf565b610ba6612e5f565b60405160ff6008835192602081818701958087835e81016004815203019020015460101c1615610d145760ff600860405160208186518087835e810160048152030190200154166006811015610d0057600103610cf1576020604051809284518091835e8101600481520301902090600682015467ffffffffffffffff8160601c16421115610cc95760088301805460ff191660051790556001600160601b031691610c5b91908380610c8e575b50506129aa565b6040519182527fb559d285c87e4fa0f561388264310703ff0c6c454a39ae52d0ae94032ff0db7060203393a36001815580f35b6001600160a01b03610cc29254167f0000000000000000000000000000000000000000000000000000000000000000612eca565b5f83610c54565b6004847f2eb35430000000000000000000000000000000000000000000000000000000008152fd5b600483635e40b94f60e01b8152fd5b602484634e487b7160e01b81526021600452fd5b60048363223da47360e21b8152fd5b50346101c057806003193601126101c05760206040516001600160a01b037f0000000000000000000000000000000000000000000000000000000000000000168152f35b50346101c05760403660031901126101c057610dab600435610d8761284a565b90610da6610da1825f526002602052600160405f20015490565b612e1e565b612fa9565b5080f35b50346101c05760203660031901126101c0576001600160a01b03610dd1612860565b168152600660205260408120805490610de982612c04565b92602084019181526020812090915b838310610e0d5760405180610221878261293e565b600160208192610e1c85612c2c565b815201920192019190610df8565b50346101c057806003193601126101c057602090604051908152f35b50346101c05760203660031901126101c05760043567ffffffffffffffff81116105de576020610e7b819236906004016127f4565b836101e0604051610e8b816127a1565b82815282858201526060604082015260608082015260606080820152606060a08201528260c08201528260e08201528261010082015282610120820152826101408201528261016082015282610180820152826101a0820152826101c08201520152604051928184925191829101835e81016004815203019020600860405191610f14836127a1565b6001600160a01b0381541683526001600160a01b036001820154166020840152610f4060028201612c2c565b6040840152610f5160038201612c2c565b6060840152610f6260048201612c2c565b6080840152610f7360058201612c2c565b60a084015267ffffffffffffffff60068201546001600160601b03811660c0860152818160601c1660e086015260a01c16610100840152600781015467ffffffffffffffff811661012085015267ffffffffffffffff8160401c1661014085015267ffffffffffffffff8160801c1661016085015260c01c610180840152015460ff81166006811015610d00579060ff916101a0840152818160081c1615156101c084015260101c1615156101e08201526040518091602082526001600160a01b0381511660208301526001600160a01b0360208201511660408301526101e06110b96110a361108d6110776040860151610200606089015261022088019061291a565b6060860151878203601f1901608089015261291a565b6080850151868203601f190160a088015261291a565b60a0840151858203601f190160c087015261291a565b916001600160601b0360c08201511660e085015267ffffffffffffffff60e08201511661010085015267ffffffffffffffff6101008201511661012085015267ffffffffffffffff6101208201511661014085015267ffffffffffffffff6101408201511661016085015267ffffffffffffffff6101608201511661018085015267ffffffffffffffff610180820151166101a08501526111646101a08201516101c086019061299d565b6101c0810151151582850152015115156102008301520390f35b50346101c05760403660031901126101c057611198612860565b60243590811515820361121e576001600160a01b03911561120d571681526005602052604081205b8054906111cc82612c04565b92602084019181526020812090915b8383106111f05760405180610221878261293e565b6001602081926111ff85612c2c565b8152019201920191906111db565b1681526006602052604081206111c0565b8280fd5b503461154f5760e036600319011261154f5760043567ffffffffffffffff811161154f576112549036906004016127f4565b61125c61284a565b90604435906001600160601b03821680920361154f5760843560ff811680910361154f5760a4359360c43590611290612e93565b611298612daf565b6112a0612e5f565b6040519560ff6008865198602081818a019b808d835e81016004815203019020015460101c16156117cd576001600160a01b036040516020818851808c835e810160048152030190205416966001600160a01b0383168098036117be5760ff60086040516020818a518087835e8101600481520301902001541660068110156117aa5761179b5785511561177357861561174b576006906020604051809289518091835e81016004815203019020019367ffffffffffffffff855460a01c16611723577f0000000000000000000000000000000000000000000000000000000000000000936001600160a01b038516926040517f70a082310000000000000000000000000000000000000000000000000000000081528a6004820152602081602481885afa8015611718578a915f916116e3575b50106116bb5782158015906116b2575b80156116a9575b611566575b5050604051636eb1769f60e11b81526001600160a01b0390931660048401525030602483015260209082908180604481015b03915afa801561155b5785918891611522575b5010611513577f2c138f65913cd3b9ca6f36e4b59e26830a033a978ca69f935781972e6df1f61d926020926114b661150493604051907f23b872dd0000000000000000000000000000000000000000000000000000000087830152896024830152306044830152886064830152606482526114b16084836127d2565b61302e565b80547fffffffff0000000000000000ffffffffffffffffffffffffffffffffffffffff164260a01b7bffffffffffffffff0000000000000000000000000000000000000000161790556129aa565b92604051908152a36001815580f35b6004866313be252b60e01b8152fd5b9150506020813d602011611553575b8161153e602093836127d2565b8101031261154f578490515f611435565b5f80fd5b3d9150611531565b6040513d89823e3d90fd5b833b1561154f57604051927fd505accf0000000000000000000000000000000000000000000000000000000084528a60048501523060248501528960448501526064356064850152608484015260a483015260c48201525f8160e48183865af19081611694575b506115fa576004887fb78cb0dd000000000000000000000000000000000000000000000000000000008152fd5b604051636eb1769f60e11b81526001600160a01b0383166004820152306024820152602081604481855afa80156116895787918a91611654575b5010611645578160206114226113f0565b6004886313be252b60e01b8152fd5b9150506020813d602011611681575b81611670602093836127d2565b8101031261154f578690515f611634565b3d9150611663565b6040513d8b823e3d90fd5b6116a19199505f906127d2565b5f975f6115cd565b508115156113eb565b508015156113e4565b7ff4d678b8000000000000000000000000000000000000000000000000000000005f5260045ffd5b9150506020813d602011611710575b816116ff602093836127d2565b8101031261154f578990515f6113d4565b3d91506116f2565b6040513d5f823e3d90fd5b7fc927e758000000000000000000000000000000000000000000000000000000005f5260045ffd5b7f2c5211c6000000000000000000000000000000000000000000000000000000005f5260045ffd5b7f5f0be7af000000000000000000000000000000000000000000000000000000005f5260045ffd5b635e40b94f60e01b5f5260045ffd5b634e487b7160e01b5f52602160045260245ffd5b63ea8e4eb560e01b5f5260045ffd5b63223da47360e21b5f5260045ffd5b3461154f576117ea36612876565b906117f3612daf565b6117fb612e5f565b60405160ff6008835192602081818701958087835e81016004815203019020015460101c16156117cd576001600160a01b0380600160405160208187518088835e8101600481520301902001541693168093036117be5760ff600860405160208186518087835e8101600481520301902001541660068110156117aa5761179b576020604051809284518091835e810160048152030190209067ffffffffffffffff600683015460a01c16156118e75760086118c29201600160ff198254161790556129aa565b7ecaec7345d2eb04a42197ac2a2cd7cd74a00b2991b69bb53e23465d4092fdfb5f80a3005b7f8ea2177a000000000000000000000000000000000000000000000000000000005f5260045ffd5b3461154f57604036600319011261154f57611928612860565b6001600160a01b036024359161193c612daf565b16906001600160a01b037f000000000000000000000000000000000000000000000000000000000000000016821461198157801561174b5761197f913390612eca565b005b7fc5d17e08000000000000000000000000000000000000000000000000000000005f5260045ffd5b3461154f57604036600319011261154f576119c261284a565b6004355f5260026020526001600160a01b0360405f2091165f52602052602060ff60405f2054166040519015158152f35b3461154f575f36600319011261154f57611a0b612daf565b611a13612e5f565b600160ff19815416176001557f62e78cea01bee320cd4e420270b5ea74000d11b0c9f74754ebdbfc544b05a2586020604051338152a1005b3461154f57602036600319011261154f5760043567ffffffffffffffff811161154f576020611a7f819236906004016127f4565b604051928184925191829101835e81016004815203019020600881015460ff8160101c169081611adb575b5060209181611abf575b506040519015158152f35b67ffffffffffffffff91506007015460401c1642101582611ab4565b60ff9150169060068210156117aa57906002146020611aaa565b3461154f575f36600319011261154f57602060ff600154166040519015158152f35b3461154f57611b25366128b8565b611b30929192612daf565b611b38612e5f565b60405160ff6008845192602081818801958087835e81016004815203019020015460101c16156117cd576001600160a01b0380600160405160208188518088835e8101600481520301902001541694168094036117be5760ff600860405160208187518087835e8101600481520301902001541660068110156117aa5760010361179b576020604051809285518091835e8101600481520301902067ffffffffffffffff600682015460601c164211611cfc57815115611cd45760088101600260ff19825416179055600781019182546203f4804201804211611cc0577f934109f661b65dbccffcae4f7ee04261eb7b36e5136e1ca86dde1b00598cb03194611c95846004611cb597611ca0966fffffffffffffffff000000000000000067ffffffffffffffff9760401b16907fffffffffffffffffffffffffffffffff0000000000000000000000000000000088421691161717855501612a14565b5460401c16946129aa565b9360405192839260408452604084019061291a565b9060208301520390a3005b634e487b7160e01b5f52601160045260245ffd5b7f361178c7000000000000000000000000000000000000000000000000000000005f5260045ffd5b7fec971c66000000000000000000000000000000000000000000000000000000005f5260045ffd5b3461154f575f36600319011261154f57602060035460601c604051908152f35b3461154f575f36600319011261154f57611d5c612daf565b60015460ff811615611d9b5760ff19166001557f5db9ee0a495bf2e6ff9c91a7834c1ba4fdd244a5e8aa4e537bd38aeae4b073aa6020604051338152a1005b7f8dfc202b000000000000000000000000000000000000000000000000000000005f5260045ffd5b3461154f57602036600319011261154f5760043567ffffffffffffffff811161154f57611df49036906004016127f4565b611dfc612e93565b611e04612daf565b611e0c612e5f565b60405160ff6008835192602081818701958087835e81016004815203019020015460101c16156117cd5760ff600860405160208186518087835e8101600481520301902001541660068110156117aa5760020361179b576020604051809284518091835e8101600481520301902067ffffffffffffffff600782015460401c164210611fa0577f8531198e5d946af9a770d2eeba00258645e163142d835fe1b04e45f4db720f8b6001600160601b03600683015416611f506001600160a01b036001611ef36127106001600160601b03611eea816003541688612b0d565b16048095612b30565b60088701805460ff19166004179055957f00000000000000000000000000000000000000000000000000000000000000006001600160601b03881680611f8a575b506001600160601b03861680611f73575b5050015416946129aa565b604080516001600160601b0395861681529290941660208301529290a360015f55005b611f839160035460601c90612eca565b8880611f45565b611f9a9085858501541683612eca565b89611f34565b7f2d6bf645000000000000000000000000000000000000000000000000000000005f5260045ffd5b3461154f57604036600319011261154f57611fe161284a565b336001600160a01b03821603611ffd5761197f90600435612fa9565b7f6697b232000000000000000000000000000000000000000000000000000000005f5260045ffd5b3461154f57602036600319011261154f576004356001600160601b038116810361154f5761197f90612055612daf565b612b50565b3461154f57604036600319011261154f5761197f60043561207961284a565b90612093610da1825f526002602052600160405f20015490565b612f1a565b3461154f576120a636612876565b6120ae612e93565b6120b6612daf565b6120be612e5f565b60405160ff6008845192602081818801958087835e81016004815203019020015460101c16156117cd576001600160a01b038060405160208187518087835e81016004815203019020541692168092036117be5760ff600860405160208187518087835e8101600481520301902001541660068110156117aa5760020361179b577f8531198e5d946af9a770d2eeba00258645e163142d835fe1b04e45f4db720f8b906020604051809286518091835e81016004815203019020611f506001600160a01b0360016001600160601b03600685015416936121b96127106001600160601b036121b0816003541689612b0d565b16048096612b30565b60088201805460ff19166004179055966121d2896129aa565b7ecaec7345d2eb04a42197ac2a2cd7cd74a00b2991b69bb53e23465d4092fdfb5f80a37f00000000000000000000000000000000000000000000000000000000000000006001600160601b03881680611f8a57506001600160601b03861680611f73575050015416946129aa565b3461154f57602036600319011261154f57602061226b6004355f526002602052600160405f20015490565b604051908152f35b3461154f575f36600319011261154f5760206001600160601b0360035416604051908152f35b3461154f57602036600319011261154f5760043567ffffffffffffffff811161154f576122ca9036906004016127f4565b6122d2612e93565b6122da612daf565b60405160ff6008835192602081818701958087835e81016004815203019020015460101c16156117cd576020604051809284518091835e81016004815203019020600881019160ff83541660068110156117aa57600181036123d0575b50816001600160601b0360066123639401541693600560ff1982541617905583806123955750506129aa565b6040519182527fb559d285c87e4fa0f561388264310703ff0c6c454a39ae52d0ae94032ff0db7060203393a360015f55005b6001600160a01b036123c99254167f0000000000000000000000000000000000000000000000000000000000000000612eca565b8383610c54565b600119016123de5783612337565b7f26f86568000000000000000000000000000000000000000000000000000000005f5260045ffd5b3461154f575f36600319011261154f5760206040517fa8a7bc421f721cb936ea99efdad79237e6ee0b871a2a08cf648691f9584cdc778152f35b3461154f5761244e366128b8565b9091612458612daf565b612460612e5f565b60405160ff6008835192602081818701958087835e81016004815203019020015460101c16156117cd576001600160a01b038060405160208186518087835e81016004815203019020541694168094036117be5760ff600860405160208186518087835e8101600481520301902001541660068110156117aa5760020361179b576020604051809284518091835e81016004815203019020600781019067ffffffffffffffff825460401c164210156125eb578351156125c3577fde7b01bef0884582ce204f7f920e57f99dd569f93867450872f436be5a03c755926125be9261255f8660058560086125a99701600360ff1982541617905501612a14565b80547fffffffffffffffff0000000000000000ffffffffffffffffffffffffffffffff164260801b77ffffffffffffffff00000000000000000000000000000000161790556129aa565b9260405191829160208352602083019061291a565b0390a3005b7fbc7fd331000000000000000000000000000000000000000000000000000000005f5260045ffd5b7f5a1eae5a000000000000000000000000000000000000000000000000000000005f5260045ffd5b3461154f5761262136612876565b9061262a612daf565b6040519060ff6008825193602081818601968088835e81016004815203019020015460101c16156117cd576001600160a01b038060405160208185518088835e81016004815203019020541693168093036117be5760ff600860405160208185518088835e8101600481520301902001541660068110156117aa5761179b5760086126d7926020604051809285518091835e8101600481520301902001600560ff198254161790556129aa565b7fb559d285c87e4fa0f561388264310703ff0c6c454a39ae52d0ae94032ff0db7060206040515f8152a3005b3461154f57602036600319011261154f57600435907fffffffff00000000000000000000000000000000000000000000000000000000821680920361154f57817f7965db0b0000000000000000000000000000000000000000000000000000000060209314908115612777575b5015158152f35b7f01ffc9a70000000000000000000000000000000000000000000000000000000091501483612770565b610200810190811067ffffffffffffffff8211176127be57604052565b634e487b7160e01b5f52604160045260245ffd5b90601f8019910116810190811067ffffffffffffffff8211176127be57604052565b81601f8201121561154f5780359067ffffffffffffffff82116127be5760405192612829601f8401601f1916602001856127d2565b8284526020838301011161154f57815f926020809301838601378301015290565b602435906001600160a01b038216820361154f57565b600435906001600160a01b038216820361154f57565b604060031982011261154f576004359067ffffffffffffffff821161154f576128a1916004016127f4565b906024356001600160a01b038116810361154f5790565b606060031982011261154f5760043567ffffffffffffffff811161154f57816128e3916004016127f4565b916024356001600160a01b038116810361154f57916044359067ffffffffffffffff821161154f57612917916004016127f4565b90565b805180835260209291819084018484015e5f828201840152601f01601f1916010190565b602081016020825282518091526040820191602060408360051b8301019401925f915b83831061297057505050505090565b909192939460208061298e600193603f19868203018752895161291a565b97019301930191939290612961565b9060068210156117aa5752565b602090604051918183925191829101835e81015f815203902090565b90600182811c921680156129f4575b60208310146129e057565b634e487b7160e01b5f52602260045260245ffd5b91607f16916129d5565b818110612a09575050565b5f81556001016129fe565b919091825167ffffffffffffffff81116127be57612a3282546129c6565b601f8111612ad2575b506020601f8211600114612a7457819293945f92612a69575b50508160011b915f199060031b1c1916179055565b015190505f80612a54565b601f19821690835f52805f20915f5b818110612aba57509583600195969710612aa2575b505050811b019055565b01515f1960f88460031b161c191690555f8080612a98565b9192602060018192868b015181550194019201612a83565b612afd90835f5260205f20601f840160051c81019160208510612b03575b601f0160051c01906129fe565b5f612a3b565b9091508190612af0565b906001600160601b03809116911602906001600160601b038216918203611cc057565b906001600160601b03809116911603906001600160601b038211611cc057565b6001600160601b038116906103e88211612bdc57600354916001600160601b03831690808214612bd6577ffeeddf72b7ee4210b769104cb8b071e5706232ac7f671fb292af429ffd58b587936001600160601b03191617600355612bd1604051928392839092916001600160601b0360209181604085019616845216910152565b0390a1565b50505050565b7fcd4e6167000000000000000000000000000000000000000000000000000000005f5260045ffd5b9067ffffffffffffffff82116127be5760405191612c2860208260051b01846127d2565b8252565b9060405191825f825492612c3f846129c6565b8084529360018116908115612caa5750600114612c66575b50612c64925003836127d2565b565b90505f9291925260205f20905f915b818310612c8e575050906020612c64928201015f612c57565b6020919350806001915483858901015201910190918492612c75565b905060209250612c6494915060ff191682840152151560051b8201015f612c57565b908154680100000000000000008110156127be5760018101808455811015612cfe57612c64925f5260205f2001612a14565b634e487b7160e01b5f52603260045260245ffd5b6001600160a01b038116908115612da057600354918260601c908114612d9b576001600160601b03909216606082901b6bffffffffffffffffffffffff191617600355604080516001600160a01b0393841681529290911660208301527faaebcf1bfa00580e41d966056b48521fa9f202645c86d4ddf28113e617c1b1d3919081908101612bd1565b505050565b63e6c4247b60e01b5f5260045ffd5b335f9081527fef73bf2ac44f84561b5498839ab1c8c5a4dd99305d838aea0d76c5961778535c602052604090205460ff1615612de757565b63e2517d3f60e01b5f52336004527fa8a7bc421f721cb936ea99efdad79237e6ee0b871a2a08cf648691f9584cdc7760245260445ffd5b805f52600260205260405f206001600160a01b0333165f5260205260ff60405f20541615612e495750565b63e2517d3f60e01b5f523360045260245260445ffd5b60ff60015416612e6b57565b7fd93c0665000000000000000000000000000000000000000000000000000000005f5260045ffd5b60025f5414612ea25760025f55565b7f3ee5aeb5000000000000000000000000000000000000000000000000000000005f5260045ffd5b612c64926001600160a01b03604051937fa9059cbb0000000000000000000000000000000000000000000000000000000060208601521660248401526044830152604482526114b16064836127d2565b805f52600260205260405f206001600160a01b0383165f5260205260ff60405f205416155f14612fa357805f52600260205260405f206001600160a01b0383165f5260205260405f20600160ff198254161790556001600160a01b03339216907f2f8788117e7eff1d82e926ec794901d17c78024a50270940304540a733656f0d5f80a4600190565b50505f90565b805f52600260205260405f206001600160a01b0383165f5260205260ff60405f2054165f14612fa357805f52600260205260405f206001600160a01b0383165f5260205260405f2060ff1981541690556001600160a01b03339216907ff6391f5c32d9c69d2a47ea670b442974b53935d1edc7fd64eb21e047a839171b5f80a4600190565b905f602091828151910182855af115611718575f513d61309257506001600160a01b0381163b155b61305d5750565b6001600160a01b03907f5274afe7000000000000000000000000000000000000000000000000000000005f521660045260245ffd5b6001141561305656fea264697066735822122003fc0676ccb856e7f5ba8e161b000e90977772393213e4626033910bc71eebc864736f6c634300081c0033ef73bf2ac44f84561b5498839ab1c8c5a4dd99305d838aea0d76c5961778535ca8a7bc421f721cb936ea99efdad79237e6ee0b871a2a08cf648691f9584cdc77",
  "linkReferences": {},
  "deployedLinkReferences": {},
  "immutableReferences": {
    "8507": [
      {
        "length": 32,
        "start": 913
      },
      {
        "length": 32,
        "start": 3230
      },
      {
        "length": 32,
        "start": 3395
      },
      {
        "length": 32,
        "start": 4965
      },
      {
        "length": 32,
        "start": 6472
      },
      {
        "length": 32,
        "start": 7941
      },
      {
        "length": 32,
        "start": 8695
      },
      {
        "length": 32,
        "start": 9125
      }
    ]
  },
  "inputSourceName": "project/contracts/EtharisEscrow.sol",
  "buildInfoId": "solc-0_8_28-a50dd647bce88c3e45fe0006cce1ce14be5de618"
}